; ***************************************************
; **                                               **
; ** [File name] debugspeedtest.x87 2017/08/31 01;25;29 **
; ** [Chip name] LC87F1M16                         **
; **                                               **
; ***************************************************
;
:100000002005000000470B00970AFE303900470C1E
:1000100000970200810089094202008F020023003C
:10002000F7470C00970200810089094202FF8F0206
:10003000002300F730683B7FFE470300D906970096
:1000400000688588839702008882970400888597D6
:100050000600888A970A0088889708008C098C0A0D
:100060008C0B894F8881110124888011060688062F
:100070009204680B8806630087020073009104876E
:10008000060060470100988097060068128880117A
:1000900006068100920468078702008100910487A8
:1000A00004006047010098809704003F06028C031B
:1000B0002408B12409AE240AAB240BA8470C006025
:1000C000870000988097000088818903204300A062
:1000D000010000000000000000000000000000001F
:1000E0000000000000000000000000000000000010
:1000F0000000000000000000000000000000000000
:1001000000000000000000000000000000000000EF
:1001100000000000000000000000000000000000DF
:103B60000000000000000000670000870AFE9700C8
:103B700000670000770AFE770000A0FFFFFFFFFF4D
:103B8000FFFFFFFFFFFFFFFFFFFFFFFFFFFFFFFF45
:103B9000FFFFFFFFFFFFFFFFFFFFFFFFFFFFFFFF35
:103BA000FFFFFFFFFFFFFFFFFFFFFFFFFFFFFFFF25
:103BB000FFFFFFFFFFFFFFFFFFFFFFFFFFFFFFFF15
:103F000000000043800043815843822043830143E3
:103F100084054385724386DD4387E14388FF4389F7
:103F2000FF438A00438B12438CFC438DF7432400EC
:103F3000432600432800432A00432C00432E00431D
:103F400020FF4321FF43420043431E4344004345B7
:103F500000434600434734434A00434B00434C0070
:103F6000438E7F4396F84397F94398C04399F643AD
:103F70009A05439B7743A47643A87D437EFD43ABDC
:103F8000FB43B71F43A9FF43AEFC437DFC00000089
:103F90000000000000000000000000000000000021
:103FA0000000000000000000000000000000000011
:103FB00000000000002000000000000000000010D1
:103FC0004F50542047656E657261746564206200CD
:103FD0004C43383746314D313600000000000000B8
:103FE0002020000000000000001600102400000047
:103FF000000000000000000000022017083101133B
:00000001FF
